101 064109549 6910001342202180900A094101LINEAGE BANK           ASF APPLICATION SUPERVI        5200FRB DEP TST FILE                    FRB       PPDFRB TEST        2202180491061000140000002622064109549*4633861336*     00001001228519264036     ROSEMARY SALT         DD0061000140000013622064109549*6201800336*     00001002223434310636     ROBIN HOOD            DD0061000140000014622064109549*0822280536*     00001003227697007436     TEQUILA ROSE          DD0061000140000015622064109549*3289117036*     00001004227996712636     JIM BEAM              DD0061000140000016622064109549*3907253636*     00001005222223605436     TIME WARNER           DD0061000140000017622064109549*4879775136*     00002001223590503436     STUBBY GRANT          DD0061000140000018627064109549*7292612336*     00001006273905034336     JONATHAN WINTERS      DD0061000140000019627064109549*5785334636*     00001007273386520436     ADRIAN SHANNON        DD0061000140000020627064109549*6684862636*     00001008277513840336     EVA MARIE             DD0061000140000021627064109549*0925583836*     00001009274857037536     CHERIE GREENE         DD0061000140000022627064109549*5728189236*     00001010278516281536     FAITH LAMBERT         DD0061000140000023627064109549*8974081736*     00002002271338652036     NAOMI PENNINGTON      DD006100014000002482000000120076931448000000704362000000701732FRB                                0610001400000025200FRB DEP TST FILE                    FRB       WEBFRB TEST        2202180491061000140000001622064109549*0714034943*     0000100122290936543      LAKISHA VEGA          S 1061000140000001705************************Payment Related Info 43101 **************************WEB00010000001622064109549*7572760643*     0000100222402142343      LORNA DOONE           S 1061000140000002705************************Payment Related Info 43102 **************************WEB00010000002622064109549*6931148643*     0000100322965221843      BENTON SNIDER         S 1061000140000003705************************Payment Related Info 43103 **************************WEB00010000003622064109549*0576853343*     0000100422344527643      MEGHAN COLLIER        S 1061000140000004705************************Payment Related Info 43104 **************************WEB00010000004622064109549*0484508843*     0000100522535721643      SHORT LONG            S 1061000140000005705************************Payment Related Info 43105 **************************WEB00010000005622064109549*8071465143*     0000200122233528843      LEONOR WILKINS        S 1061000140000006705************************Payment Related Info 43201 **************************WEB00010000006627064109549*4502308243*     0000100627828520043      FREDDIE MAC           S 1061000140000007705************************Payment Related Info 43106 **************************WEB00010000007627064109549*1780244343*     0000100727950246243      MILTON THE MONSTER    S 1061000140000008705************************Payment Related Info 43107 **************************WEB00010000008627064109549*7837926743*     0000100827725123443      VELMA LOUISE          S 1061000140000009705************************Payment Related Info 43108 **************************WEB00010000009627064109549*2822521743*     0000100927931369943      HENRY HICKS           S 1061000140000010705************************Payment Related Info 43109 **************************WEB00010000010627064109549*0195277443*     0000101027443732543      EULA RIVERS           S 1061000140000011705************************Payment Related Info 43110 **************************WEB00010000011627064109549*0139936643*     0000200227256263443      RAY TREVINO           S 1061000140000012705************************Payment Related Info 43202 **************************WEB0001000001282000000240076931448000000704362000000701732FRB                                0610001400000015200FRB DEP TST FILE                    FRB       PPDFRB TEST        2202180491061000140000003622064109549*4633861336*     00001001228519264036     ROSEMARY SALT         DD0061000140000049622064109549*6201800336*     00001002223434310636     ROBIN HOOD            DD0061000140000050622064109549*0822280536*     00001003227697007436     TEQUILA ROSE          DD0061000140000051622064109549*3289117036*     00001004227996712636     JIM BEAM              DD0061000140000052622064109549*3907253636*     00001005222223605436     TIME WARNER           DD0061000140000053622064109549*4879775136*     00002001223590503436     STUBBY GRANT          DD0061000140000054627064109549*7292612336*     00001006273905034336     JONATHAN WINTERS      DD0061000140000055627064109549*5785334636*     00001007273386520436     ADRIAN SHANNON        DD0061000140000056627064109549*6684862636*     00001008277513840336     EVA MARIE             DD0061000140000057627064109549*0925583836*     00001009274857037536     CHERIE GREENE         DD0061000140000058627064109549*5728189236*     00001010278516281536     FAITH LAMBERT         DD0061000140000059627064109549*8974081736*     00002002271338652036     NAOMI PENNINGTON      DD0061000140000060632064109549*9964904736*     00001011328192640136     NELDA GIBBS           DD0061000140000061632064109549*4345613236*     00001012323434310636     SONDRA ACOSTA         DD0061000140000062632064109549*2739135336*     00001013328970074936     ALAN PATTERSON        DD0061000140000063632064109549*2057101236*     00001014327996712536     DEIRDRE HUFF          DD0061000140000064632064109549*3229705936*     00001015323223605436     ART MARTINEZ          DD0061000140000065632064109549*1372244936*     00002003327513840736     ESMERALDA BRENNAN     DD0061000140000066637064109549*3194045936*     00001016379050343036     EDNA BOWMAN           DD0061000140000067637064109549*6775447636*     00001017371338652036     ADAN LYONS            DD0061000140000068637064109549*9474306536*     00001018377513840336     EMORY FIGUEROA        DD0061000140000069637064109549*4654957636*     00001019374857037536     DARRELL FOLEY         DD0061000140000070637064109549*0383874436*     00001020378516281536     HARRY WATKINS         DD0061000140000071637064109549*0541211836*     00002004374855589436     JUDE BUTLER           DD006100014000007282000000240153862896000001413984000001408724FRB                                0610001400000035200FRB DEP TST FILE                    FRB       WEBFRB TEST        2202180491061000140000002622064109549*0714034943*     0000100122290936543      LAKISHA VEGA          S 1061000140000025705************************Payment Related Info 43101 **************************WEB00010000025622064109549*7572760643*     0000100222402142343      LORNA DOONE           S 1061000140000026705************************Payment Related Info 43102 **************************WEB00010000026622064109549*6931148643*     0000100322965221843      BENTON SNIDER         S 1061000140000027705************************Payment Related Info 43103 **************************WEB00010000027622064109549*0576853343*     0000100422344527643      MEGHAN COLLIER        S 1061000140000028705************************Payment Related Info 43104 **************************WEB00010000028622064109549*0484508843*     0000100522535721643      SHORT LONG            S 1061000140000029705************************Payment Related Info 43105 **************************WEB00010000029622064109549*8071465143*     0000200122233528843      LEONOR WILKINS        S 1061000140000030705************************Payment Related Info 43201 **************************WEB00010000030627064109549*4502308243*     0000100627828520043      FREDDIE MAC           S 1061000140000031705************************Payment Related Info 43106 **************************WEB00010000031627064109549*1780244343*     0000100727950246243      MILTON THE MONSTER    S 1061000140000032705************************Payment Related Info 43107 **************************WEB00010000032627064109549*7837926743*     0000100827725123443      VELMA LOUISE          S 1061000140000033705************************Payment Related Info 43108 **************************WEB00010000033627064109549*2822521743*     0000100927931369943      HENRY HICKS           S 1061000140000034705************************Payment Related Info 43109 **************************WEB00010000034627064109549*0195277443*     0000101027443732543      EULA RIVERS           S 1061000140000035705************************Payment Related Info 43110 **************************WEB00010000035627064109549*0139936643*     0000200227256263443      RAY TREVINO           S 1061000140000036705************************Payment Related Info 43202 **************************WEB00010000036632064109549*2155162143*     0000101132591493643      BILLIE OCEAN          S 1061000140000037705************************Payment Related Info 43111 **************************WEB00010000037632064109549*6107721343*     0000101232424281443      DARRICK WELCH         S 1061000140000038705************************Payment Related Info 43112 **************************WEB00010000038632064109549*7474526543*     0000101332962218043      KIRBY MARIO           S 1061000140000039705************************Payment Related Info 43113 **************************WEB00010000039632064109549*6559843443*     0000101432353427343      AGUSTIN MCMAHON       S 1061000140000040705************************Payment Related Info 43114 **************************WEB00010000040632064109549*9483403143*     0000101532317216043      CAMERON WILKERSON     S 1061000140000041705************************Payment Related Info 43115 **************************WEB00010000041632064109549*8827652043*     0000200332122217643      BENITA SCHROEDER      S 1061000140000042705************************Payment Related Info 43203 **************************WEB00010000042637064109549*1401861043*     0000101637288523243      STACEY SKINNER        S 1061000140000043705************************Payment Related Info 43116 **************************WEB00010000043637064109549*9852144943*     0000101737650255543      CECILE SPEARS         S 1061000140000044705************************Payment Related Info 43117 **************************WEB00010000044637064109549*2148818843*     0000101837550259743      ENOCH LEVINE          S 1061000140000045705************************Payment Related Info 43118 **************************WEB00010000045637064109549*6854804543*     0000101937313699043      LORI MCPHERSON        S 1061000140000046705************************Payment Related Info 43119 **************************WEB00010000046637064109549*9798230943*     0000102037143200043      MICHELE PRICE         S 1061000140000047705************************Payment Related Info 43120 **************************WEB00010000047637064109549*4397334743*     0000200437411802843      EVELYN GROSS          S 1061000140000048705************************Payment Related Info 43204 **************************WEB0001000004882000000480153862896000001413984000001408724FRB                                0610001400000025200FRB DEP TST FILE                    FRB       CCDFRB TEST        2202180491061000140000001622064109549*1846485025*     00001001227095457425     GENEVIEVE RIDDLE      DD1061000140000001705************************Payment Related Info 25101****************************  00010000001622064109549*6052479825*     00001002227113392525     ANTONIA FULTON        DD1061000140000002705************************Payment Related Info 25102****************************  00010000002622064109549*7726408825*     00001003229576527625     HAYWOOD MCGUIRE       DD1061000140000003705************************Payment Related Info 25103****************************  00010000003622064109549*5789590125*     00001004221754529725     THERON AUSTIN         DD1061000140000004705************************Payment Related Info 25104****************************  00010000004622064109549*1599049225*     00001005228662989825     JODY JENSEN           DD1061000140000005705************************Payment Related Info 25105****************************  00010000005622064109549*7510623125*     00002001229840949125     REYNALDO KELLY        DD1061000140000006705************************Payment Related Info 25201****************************  00010000006627064109549*6048751825*     00001006272787297925     HELENE HOPPER         DD1061000140000007705************************Payment Related Info 25106****************************  00010000007627064109549*6160729325*     00001007272742695025     COLBY STUART          DD1061000140000008705************************Payment Related Info 25107****************************  00010000008627064109549*4830623425*     00001008271968837925     DEWEY DECIMAL         DD1061000140000009705************************Payment Related Info 25108****************************  00010000009627064109549*6660835425*     00001009272652799825     DONNA SUMMERS         DD1061000140000010705************************Payment Related Info 25109****************************  00010000010627064109549*7112390625*     00001010276613729725     CHARLENE WALLS        DD1061000140000011705************************Payment Related Info 25110****************************  00010000011627064109549*8163466425*     00002002275947182825     CHRISTY SEXTON        DD1061000140000012705************************Payment Related Info 25202****************************  00010000012632064109549*5768347825*     00001011322045677625     ELINOR OSBORN         DD1061000140000013705************************Payment Related Info 25111****************************  00010000013632064109549*3764814525*     00001012328586939525     MICHEL PRICE          DD1061000140000014705************************Payment Related Info 25112****************************  00010000014632064109549*8798197325*     00001013329547381425     NOELLE BONNER         DD1061000140000015705************************Payment Related Info 25113****************************  00010000015632064109549*7080986525*     00001014320887353325     CHAS RANDOLPH         DD1061000140000016705************************Payment Related Info 25114****************************  00010000016632064109549*1050631925*     00001015321636750225     TERRY VALENCIA        DD1061000140000017705************************Payment Related Info 25115****************************  00010000017632064109549*9712578425*     00002003326924357725     VICTORIA BRIDGES      DD1061000140000018705************************Payment Related Info 25203****************************  00010000018637064109549*3268985425*     00001016373993692125     LETITIA SCHMIDT       DD1061000140000019705************************Payment Related Info 25116****************************  00010000019637064109549*5693933825*     00001017373105069125     MARQUIS BYERS         DD1061000140000020705************************Payment Related Info 25117****************************  00010000020637064109549*6624423025*     00001018376853551225     TERRA EMERSON         DD1061000140000021705************************Payment Related Info 25118****************************  00010000021637064109549*3973388625*     00001019371703212325     SANDY HERRING         DD1061000140000022705************************Payment Related Info 25119****************************  00010000022637064109549*8306210925*     00001020374202010425     JULES BATES           DD1061000140000023705************************Payment Related Info 25120****************************  00010000023637064109549*4654170625*     00002004374620742625     DELMER HYDE           DD1061000140000024705************************Payment Related Info 25204****************************  0001000002482000000480153862896000001413984000001408724FRB                                0610001400000019000005000017000001560615451584000005650676000005629636                                       99999999999999999999999999999999999999999999999999999999999999999999999999999999999999999999999999999999999999999999999999999999999999999999999999999999999999999999999999999999999999999999